:020000040800F2
:1000000080060020350200083D0200083F0200087B
:1000100041020008430200084502000800000000F9
:10002000000000000000000000000000470200087F
:1000300049020008000000004B0200084D020008C1
:100040004F0200084F0200084F0200084F0200084C
:100050004F0200084F0200084F0200084F0200083C
:100060004F0200084F0200084F0200084F0200082C
:100070004F0200084F0200084F0200084F0200081C
:100080004F0200084F020008F102000800000000C3
:100090000000000000000000000000004F02000807
:1000A0004F020008B90400084F0200084F02000880
:1000B0004F0200084F0200084F0200084F020008DC
:1000C0004F0200084F0200084F0200084F020008CC
:1000D0004F0200084F0200084F0200080000000015
:1000E0004F0200084F0200084F0200080000000005
:1000F0000000000000000000000000004F020008A7
:10010000000000004F0200084F0200084F020008E4
:1001100000000000000000000000000000000000DF
:100120004F0200084F0200084F0200084F0200086B
:100130004F02000800000000000000000000000066
:100140000000000000000000000000004F02000856
:100150004F0200084F0200084F0200084F0200083B
:100160004F0200084F0200080000000000000000DD
:10017000000000000000000000000000000000007F
:10018000000000004F020008000000000000000016
:100190004F02000800F002F800F03CF80AA090E8D6
:1001A000000C82448344AAF10107DA4501D100F032
:1001B00031F8AFF2090EBAE80F0013F0010F18BFC3
:1001C000FB1A43F001031847B4150000D4150000D2
:1001D000103A24BF78C878C1FAD8520724BF30C873
:1001E00030C144BF04680C60704700000023002445
:1001F00000250026103A28BF78C1FBD8520728BF37
:1002000030C148BF0B6070471FB501F025F91FBD15
:1002100010B510BD00F031F81146FFF7F5FF00F002
:10022000ADFD00F04FF803B4FFF7F2FF03BC00F0A0
:1002300057F800000948804709480047FEE7FEE7F5
:10024000FEE7FEE7FEE7FEE7FEE7FEE7FEE7FEE786
:1002500004480549054A064B70470000A5040008FC
:100260009501000880000020800600208002002008
:1002700080020020704770477047754600F02CF8E8
:10028000AE4605006946534620F00700854618B083
:1002900020B5FFF7DDFFBDE820404FF000064FF02E
:1002A00000074FF000084FF0000BAC46ACE8C00967
:1002B000ACE8C009ACE8C009ACE8C00921F007010E
:1002C0008D46704710B50446AFF300802046BDE868
:1002D0001040FFF7A8BF000000487047080000204A
:1002E00001491820ABBEFEE726000200704700005F
:1002F00042F24C00C4F201000068800840F26C0138
:10030000C2F20001088042F20001C4F201016FF064
:10031000020008607047000040F20000C2F20000D6
:1003200000684EF2E921C4F21B31A0FB0110800CE1
:1003300040F26801C2F2000108604EF21401CEF2F0
:100340000001086800F07F4008606FF07F4008609F
:100350004EF21801CEF20001086800F07F400860FC
:100360004EF21001CEF20001086840F0050008606E
:100370007047000086B0002105910491022003908F
:100380000291019043F60800C4F20200006800F0F8
:100390000C0005900598009040B1FFE700980428F4
:1003A0000ED0FFE70098082814D059E040F2000171
:1003B000C2F2000142F20040C0F2F400086059E0CD
:1003C00040F20001C2F2000147F64000C0F27D1089
:1003D00008604FE043F60400C4F202000168C1F374
:1003E00080510291006800F03F000190029888B1AE
:1003F000FFE7019947F64000C0F27D10B0FBF1F035
:1004000043F60401C4F202010968C1F388114843AC
:10041000049010E0019942F20040C0F2F400B0FBF9
:10042000F1F043F60401C4F202010968C1F3881136
:1004300048430490FFE743F60400C4F2020000685A
:1004400000F44031022000EBD1300390049803996E
:10045000B0FBF1F040F20001C2F20001086009E0D7
:1004600040F20001C2F2000142F20040C0F2F4008A
:100470000860FFE743F60800C4F202000068C0B25B
:10048000010941F27240C0F60000405C0590059AF7
:1004900040F20001C2F200010868D040086006B0D6
:1004A000704700004EF68851CEF20001086840F413
:1004B000700008607047000010B590B040F27801FD
:1004C000C2F200010E910B88580A46F6174CC1F291
:1004D000C16CA0FB0C2080084FF4B4725043C0EBF9
:1004E000931340F27600C2F200000380B1F800E0FE
:1004F000782303EB9E1E4FEADE03A3FB0C439B080D
:1005000003FB12E340F27A0EC2F2000ECDF808E0CF
:10051000AEF800300B88F02101EB9313D908A1FB52
:100520000CC1890801FB123140F27C02C2F20002C8
:1005300007921180018841F28240C0F600000890C5
:1005400030F8110000F073FE41EC100B8DED000B44
:1005500040F26C00C2F200000F90008800F067FECD
:1005600041EC100B51EC100B9FED450B53EC102B95
:100570000B930A9200F0D4FC9DED001B41EC100B94
:1005800051EC110B53EC102B00F068FE41EC100BFA
:1005900051EC100B00F01EFE02990246089834231D
:1005A000C4F201031A60098830F8110000F03FFE20
:1005B00002460F9803920A46039942EC101B8DEDF8
:1005C000040B008800F033FE0A9A0B9B41EC100BE1
:1005D00051EC100B00F0A4FC9DED041B41EC100B42
:1005E00051EC110B53EC102B00F038FE41EC100BCA
:1005F00051EC100B00F0EEFD0799024608983823E5
:10060000C4F201031A60098830F8110000F00FFEEF
:1006100002460F9809920A46099942EC101B8DED8B
:100620000C0B008800F003FE0A9A0B9B41EC100BA8
:1006300051EC100B00F074FC9DED0C1B41EC100B09
:1006400051EC110B53EC102B00F008FE41EC100B99
:1006500051EC100B00F0BEFD0E9902460F983C23A2
:10066000C4F201031A60028808881044088010212F
:10067000C4F201016FF00100086010B010BD00BFAE
:10068000000000000000904083B043F60001C4F277
:100690000201086840F480300860FFE743F600007C
:1006A000C4F2020000688003002801D4FFE7F5E7E8
:1006B00043F60041C4F202010291086820F4807000
:1006C0000860086840F480700860086820F007003F
:1006D0000860086840F002000860FFE743F6004049
:1006E000C4F2020000688007002801D4FFE7F5E7A4
:1006F00043F60801C4F202010091086820F4F810E2
:100700000860086840F4C8100860086820F0F0002D
:100710000860086820F460400860086820F4E05031
:100720000860086840F48050086043F60401C4F291
:1007300002010191086820F480000860086840F414
:1007400080000860086820F070600860086820F485
:1007500040300860086820F03F000860086847F6ED
:10076000C07290430860086840F000600860086844
:1007700040F019000860086840F4A4400860086868
:1007800040F48030086043F60001C4F202010868BA
:1007900040F080700860FFE743F60000C4F20200FA
:1007A00000688001002801D5FFE7F5E743F608015E
:1007B000C4F20201086820F003000860086840F0F5
:1007C00002000860FFE743F60800C4F20200006878
:1007D0000007002801D4FFE7F5E703B070470000E9
:1007E00081B08DF803009DF8030048B1FFE740F2A7
:1007F0001441C4F20201086840F04000086008E0BB
:1008000040F21441C4F20201086820F04000086080
:10081000FFE701B07047000081B08DF803009DF83C
:10082000030048B1FFE740F21441C4F20201086836
:1008300040F08000086008E040F21441C4F2020178
:10084000086820F080000860FFE701B070470000F2
:1008500080B582B00190FFE7019840B1FFE70198B1
:10086000013801904FF47A7000F004F8F4E702B018
:1008700080BD000082B001904EF21800CEF2000060
:1008800000680090FFE74EF21800CEF2000000680A
:10089000009B019940F26802C2F20002126801FB5B
:1008A0001231884201D9FFE7EDE74EF21801CEF28E
:1008B00000010020086002B07047000081B00020F5
:1008C0008DF80300FFE79DF8030003280FDCFFE726
:1008D0009DF8032040F26E01C2F20001002088540E
:1008E000FFE79DF8030001308DF80300EBE701B04E
:1008F0007047000043F63001C4F20201086840F07E
:100900000200086040F21441C4F20201086840F09D
:10091000C000086040F20041C4F20201086840F4DF
:10092000A040086040F20441C4F20201086840F0AF
:10093000C000086040F20C41C4F20201086840F4B3
:10094000A040086040F20841C4F20201086840F487
:10095000704008607047000080B582B0FFF7CAFFA2
:10096000402000F0D7F84FF47A700190FFF782FF33
:100970008F2000F0CFF80198FFF77CFF02B080BD18
:1009800080B582B08DF807008DF806109DF807003D
:10099000612813DBFFE79DF807007A280EDCFFE7EC
:1009A0009DF807005738C0B200F020F99DF80620E6
:1009B00040F26E01C2F20001885427E09DF8070062
:1009C000412813DBFFE79DF807005A280EDCFFE7FC
:1009D0009DF807003738C0B200F008F99DF80620EE
:1009E00040F26E01C2F2000188540EE09DF807004B
:1009F000202809D1FFE79DF8062040F26E01C2F2DF
:100A0000000100208854FFE7FFE7FFE702B080BD48
:100A100080B582B0019003208DF80300FFE79DF9B7
:100A2000030000280ED4FFE701989DF803104AB296
:100A3000805CFFF7A5FFFFE79DF8030001388DF804
:100A40000300ECE702B080BD80B582B0ADF80600CF
:100A50008DF8051003208DF80400FFE79DF90400D0
:100A600000283ED4FFE7BDF80600002807DCFFE7BA
:100A70009DF904009DF80510884217DBFFE7BDF8DB
:100A800006004CF6CD41CCF6CC41A0FB0121C908B3
:100A900001EB8101A0EB410000F0A8F89DF90420D2
:100AA00040F26E01C2F20001885408E09DF9042072
:100AB00040F26E01C2F2000100208854FFE7BDF849
:100AC00006004CF6CD41CCF6CC41A0FB0110C0088D
:100AD000ADF80600FFE79DF8040001388DF804002A
:100AE000BCE79DF80500012811DBFFE79DF8050034
:100AF00004280CDCFFE79DF8051040F26E00C2F2FE
:100B00000000411A087940F080000871FFE702B048
:100B100080BD000080B582B08DF8060000F0DEF9DF
:100B20009DF8060000F0AAF900F07AF830B9FFE766
:100B300000F098F901208DF8070005E000F0D6F9E3
:100B400000208DF80700FFE79DF8070002B080BD88
:100B500080B584B08DF80E0002918DF8072000F06A
:100B6000BDF99DF80E0000F089F900F059F830B990
:100B7000FFE700F077F901208DF80F0027E0002053
:100B80008DF80600FFE79DF806009DF807108842E3
:100B900017DAFFE702989DF80610405C00F06EF946
:100BA00000F03EF830B9FFE700F05CF901208DF865
:100BB0000F000CE0FFE79DF8060001308DF80600FD
:100BC000E1E700F093F900208DF80F00FFE79DF8B2
:100BD0000F0004B080BD000080B540F26E01C2F28B
:100BE0000001C0200422FFF7B3FF80BD81B08DF863
:100BF00002009DF80200252804DBFFE700208DF8A5
:100C0000030009E09DF8021041F25770C0F60000A1
:100C1000405C8DF80300FFE79DF8030001B07047CA
:100C200080B582B000208DF80700FFF7D9FD1E20A7
:100C3000FFF720FE40F21040C4F2020000680006F8
:100C4000002804D4FFE701208DF80700FFE701200A
:100C5000FFF7C6FD1E20FFF70DFE9DF8070002B04E
:100C600080BD000081B00020ADF802008DF80100C9
:100C7000FFE79DF8010003282CDCFFE71421C4F2F4
:100C80000201086820F0F00008609DF801201020A3
:100C900000FA02F208681043086040F21040C4F203
:100CA0000200016801F48061006800F0070040EA7A
:100CB000D1109DF80110890000FA01F1BDF8020081
:100CC0000843ADF80200FFE79DF8010001308DF800
:100CD0000100CEE7BDF8020001B0704743F63001D5
:100CE000C4F20201086840F001000860086840F0A2
:100CF0000200086040F20C41C4F2020108682A2296
:100D0000C0F22002104308600021C4F2020108680A
:100D100040F4AA40086040F20041C4F202010868B1
:100D20004FF6C072CFF6CF721040086070470000D7
:100D300082B0ADF80600BDF8060001460091B0F59E
:100D4000805F05D0FFE70098B0F5804F09D011E033
:100D500040F61401C4F20201086840F40050086033
:100D600009E040F61401C4F20201086820F40050C2
:100D7000086000E0FFE702B07047000080B586B071
:100D8000002003900590FFF78DFBFFF77DFCFFF738
:100D9000F1FAFFF7C1FA43F63001C4F20201086824
:100DA00040F00400086040F60001C4F20201086847
:100DB00040F080600860FFF791FFFFF7CDFD6420F1
:100DC000FFF758FD41F25270C0F60000FFF720FE19
:100DD000FFF702FFFFF772FD4FF47A70FFF738FD5F
:100DE0000398ADF81200FFE740F27200C2F2000073
:100DF0000290008840F27401C2F200010191088063
:100E0000FFF730FF019902460298028000880988A6
:100E1000884208DDFFE740F27200C2F2000000885D
:100E2000FFF786FFFFE7BDF812000221FFF70CFE77
:100E300066200021FFF7A4FDFFF7CEFEBDF81200EB
:100E40000530ADF81200BDF81200B0F57A7F04DB72
:100E5000FFE70020ADF81200FFE76420FFF7F8FC81
:100E6000C2E7000080B582B001200190FFF7D4FCFA
:100E70000198FFF7B5FC02B080BD000080B584B0DA
:100E80008DF80F0000208DF80E00FFE79DF80E0092
:100E900007281EDCFFE70020FFF7A2FC1E200290BF
:100EA000FFF7E8FC9DF80F009DF80E20012101914D
:100EB00091400840FFF7B0FC0198FFF791FC0298C1
:100EC000FFF7D8FCFFE79DF80E0001308DF80E000B
:100ED000DCE70120FFF7A0FC04B080BD80B5002056
:100EE000FFF79AFC1E20FFF7C5FC80BD80B584B0DB
:100EF00000200190FFF790FC0198FFF771FC1E2085
:100F00000290FFF7B7FC01200390FFF769FC0298FD
:100F1000FFF7B0FC0398FFF77FFC04B080BD000032
:100F20002DE9C04130B4DFF8A4C23CEA111418BF67
:100F30003CEA131400F0ED801CEA111481EA030569
:100F400044EAD57418BF1CEA131500F0C880A4EB5E
:100F5000050404F17F7404F500344FF0004545EAC0
:100F6000C12145EAC32341EA505143EA52534FEAB3
:100F7000C0204FEAC222994208BF904200F09D80F3
:100F80004FEA13650FF24416765D4FEA134506FBF0
:100F900005F7C7F1807706FB07F74FEAD737A7FBBE
:100FA00003687642A7FB06CEC8F5803838BFA8F1A3
:100FB000010807FB08E6A6FB028C4FF0000EE6FBDB
:100FC00003CEDCF1000CCEF1004E38BFAEF1010EC5
:100FD000A6FB0C584FF00007E6FB0E87A1FB08C6E6
:100FE000A0FB07CE16EB0E064FF0000545F10005FD
:100FF000E1FB076515F1E04E7EBFA4F580345FEAA2
:1010000046066D4116F1800745F100054FEA1727A6
:1010100047EA05674FEA15254FEA0666A6F1DE4660
:10102000B6F1805F20D9384605EBC47124F0010C7D
:1010300001EB0C11BCF1FE6F02D8F0BCBDE80081E1
:1010400024425CBF01F5801E9EEAC47F02D4F0BC3E
:10105000BDE80081244200F13980A1F1C041F0BC1B
:10106000BDE8004100F0F2B94FEAD02040EA41501B
:101070004FEAD1214FEAD22242EA43524FEAD32328
:10108000A7FB028607FB036605FB02661EEA0E0F3E
:1010900058BFA6EB0056B6EB00564FEA520E4EEA8A
:1010A000C37E18EB0E0E56EB530EBCD518EB0208A0
:1010B0005E417F1C55F10005B5E74FF480154FF0F8
:1010C00000074FF000064FF00008ACE701F1C04107
:1010D00001F000414FF00000F0BCBDE800810CEAD7
:1010E000131511EA0C1F00D00CE013EA0C1F00F0DE
:1010F00026804FF0000081EA030101F00041F0BCBE
:10110000BDE80081F0BCBDE8004181EA030100F0C8
:101110009DB9F0BCBDE8004170B500F049F900BFD1
:10112000097EFC3E00F007B84FF0000081EA0301A1
:1011300001F00041704781EA030100F087B9F0BC7B
:10114000BDE8004122494FF000007047FFFDFBF968
:10115000F7F5F4F2F0EEEDEBE9E8E6E4E3E1E0DEEA
:10116000DDDBDAD8D7D5D4D3D1D0CFCDCCCBCAC85C
:10117000C7C6C5C4C2C1C0BFBEBDBCBBBAB9B8B783
:10118000B6B5B4B3B2B1B0AFAEADACABAAA9A8A876
:10119000A7A6A5A4A3A3A2A1A09F9F9E9D9C9C9B44
:1011A0009A999998979796959594939392919190EF
:1011B0008F8F8E8E8D8C8C8B8B8A89898888878780
:1011C0008685858484838382828181800000FF07F5
:1011D0000000F87F4FEA1153A3F58063D3F11E039B
:1011E000A8BFD3F1200C08DB4FF0004242EAC12235
:1011F00052EA505232FA03F0704709420BD4102BD6
:10120000C4BF0020704703F5787CBCF1FF3F05D0D8
:101210004FF0FF3070474FF00000704770B500F09E
:10122000C7F800BF4992248000207047F0E710F013
:10123000004248BF4042B0FA80F310FA03F10AD0EE
:10124000C3F11D0303F5806302EB03524FEA4150E3
:1012500002EBD12170474FF00000704770B5DFF806
:1012600048C11CEA111E1EBF1CEA13159EEA0C0F92
:1012700095EA0C0F00F06F8081EA03044EEAD47EF9
:10128000AE4421EA4C1123EA4C1341F4801143F49B
:101290008013AEF17F7EA1FB024CA0FB03653619E3
:1012A00055EB0C05A1FB034C4CF10003A0FB021C09
:1012B00016EB0C06654153F10003094218BF46F0D6
:1012C000010613F4007F0BD14FEA03314FEA0530DA
:1012D00041EA155140EA165034036FF003020AE068
:1012E0004FEAC3214FEAC52041EA555140EA565022
:1012F000F4026FF0020202EB2E4201EB025585EA86
:10130000CE710AD05FEA440C18BF24F0004450F1BB
:10131000000041F1000120EAD47040F2FE7C6245F9
:1013200000D270BDA84214BF4FF080444FF040443B
:10133000002E08BF0024BEF1806FA8BFA1F1C041FC
:10134000BDE8704080F2828001F1C04101F00041AF
:101350004FF0000070470CEA13159EEA0C0F18BFFF
:1013600095EA0C0F06D081EA030E4FF000000EF054
:10137000004170BD00F01CF88900013E00F007B884
:1013800000F009B84FEA430C5FEA5C5C08D081EAE0
:10139000030100F05BB84FEA410C5FEA5C5CF6D1F8
:1013A00002494FF0000070470000FF070000F87F7F
:1013B0000EF1020E2EF0030E5EF8046B364205D4D9
:1013C000012A43EB030515F5001F12D8012841EB54
:1013D000010C1CF5001F0CD80ED14FEAD17C0CEB90
:1013E0004C0C0CF1020C15F5001F08BF4CEBD37C24
:1013F00004E04FF0080C01E04FEAD37C0CEB4C0505
:1014000026FA05F606F00706B6F1040C06D20EEB36
:10141000860CBDE870404CF0010C6047DFE80CF032
:10142000090B02024FF00041A1F500214FF000002E
:1014300070BD19461046012851EB010418BFD4F5C0
:10144000001484BF002001F0004170BD0808A0F521
:1014500000114FEA31017047F1EE100A4FF6FF71AB
:10146000C0F2C03120EA010040F04070E1EE100A05
:10147000704700000000000000000102030406079E
:101480000809B400B900BE00C400C900CF00D400F0
:10149000D900DF00E400E900EF00F400F900FF00EC
:1014A000040109010E01140119011E012301280183
:1014B0002D01320137013C01410145014A014F0133
:1014C00050015201530155015601570159015A016A
:1014D0005B015C015D015E015F0160016101620110
:1014E00062016301640164016501650166016601D1
:1014F00066016701670167016701670167016701AD
:1015000067016701660166016601650165016401A5
:101510006401630162016201610160015F015E01BA
:101520005D015C015B015A015901570156015501EA
:101530005301520150014F01500152015301550115
:101540005601570159015A015B015C015D015E01C1
:101550005F01600161016201620163016401640174
:101560006501650166016601660167016701670142
:10157000670167016701670167016701660166012D
:101580006601650165016401640163016201620134
:10159000610160015F015E015D015C015B015A0157
:1015A00059015701560155015301520150014F0194
:1015B0004A01450141013C01370132012D01280159
:1015C00023011E01190114010E0109010401FF008C
:1015D000F900F400EF00E900E400DF00D900D400D6
:1015E000CF00C900C400BE00B900B400AE00A9001D
:1015F000A3009E00980093008E00880083007E0068
:10160000780073006E00680063005E0059005300AC
:101610004E00490044003F003A00350030002B00E6
:10162000260022001D0018001700150014001200EB
:10163000110010000E000D000C000B000A00090044
:101640000800070006000500050004000300030071
:101650000200020001000100010000000000000083
:101660000000000000000000000000000100010078
:101670000100020002000300030004000500050051
:1016800006000700080009000A000B000C000D000E
:101690000E001000110012001400150017001800B1
:1016A0001700150014001200110010000E000D00AC
:1016B0000C000B000A0009000800070006000500E6
:1016C0000500040003000300020002000100010005
:1016D0000100000000000000000000000000000009
:1016E00000000000010001000100020002000300F0
:1016F00003000400050005000600070008000900BB
:101700000A000B000C000D000E001000110012006A
:1017100014001500170018001D00220026002B00E1
:10172000300035003A003F00440049004E005300AD
:1017300059005E00630068006E00730078007E0050
:10174000830088008E00930098009E00A300A900EB
:10175000AE006C6F6463003F065B4F666D7D077F74
:101760006F777C395E79716F74041E763815545C1E
:101770007367506D783E1C2A766E5B009C170008DC
:101780000000002004000000D0010008A01700089D
:101790000800002078060000EC0100080024F40096
:0400000508000235B8
:00000001FF
