:020000040800F2
:1000000080060020350200083D0200083F0200087B
:1000100041020008430200084502000800000000F9
:10002000000000000000000000000000470200087F
:1000300049020008000000004B02000819030008F4
:100040004F0200084F0200084F0200084F0200084C
:100050004F0200084F0200084F0200084F0200083C
:100060004F0200084F0200084F0200084F0200082C
:100070004F0200084F0200084F0200084F0200081C
:100080004F0200084F020008F102000800000000C3
:100090000000000000000000000000004F02000807
:1000A0004F020008E10400084F0200084F02000858
:1000B0004F0200084F0200084F0200084F020008DC
:1000C0004F0200084F0200084F0200084F020008CC
:1000D0004F0200084F0200084F0200080000000015
:1000E0004F0200084F0200084F0200080000000005
:1000F0000000000000000000000000004F020008A7
:10010000000000004F0200084F0200084F020008E4
:1001100000000000000000000000000000000000DF
:100120004F0200084F0200084F0200084F0200086B
:100130004F02000800000000000000000000000066
:100140000000000000000000000000004F02000856
:100150004F0200084F0200084F0200084F0200083B
:100160004F0200084F0200080000000000000000DD
:10017000000000000000000000000000000000007F
:10018000000000004F020008000000000000000016
:100190004F02000800F002F800F03CF80AA090E8D6
:1001A000000C82448344AAF10107DA4501D100F032
:1001B00031F8AFF2090EBAE80F0013F0010F18BFC3
:1001C000FB1A43F001031847D0110000F0110000A2
:1001D000103A24BF78C878C1FAD8520724BF30C873
:1001E00030C144BF04680C60704700000023002445
:1001F00000250026103A28BF78C1FBD8520728BF37
:1002000030C148BF0B6070471FB500F047FF1FBDEE
:1002100010B510BD00F031F81146FFF7F5FF00F002
:100220004BFB00F04FF803B4FFF7F2FF03BC00F004
:1002300057F800000948804709480047FEE7FEE7F5
:10024000FEE7FEE7FEE7FEE7FEE7FEE7FEE7FEE786
:1002500004480549054A064B70470000C9040008D8
:100260009501000880000020800600208002002008
:1002700080020020704770477047754600F02CF8E8
:10028000AE4605006946534620F00700854618B083
:1002900020B5FFF7DDFFBDE820404FF000064FF02E
:1002A00000074FF000084FF0000BAC46ACE8C00967
:1002B000ACE8C009ACE8C009ACE8C00921F007010E
:1002C0008D46704710B50446AFF300802046BDE868
:1002D0001040FFF7A8BF000000487047080000204A
:1002E00001491820ABBEFEE726000200704700005F
:1002F00042F24C00C4F201000068800840F268013C
:10030000C2F20001088042F20001C4F201016FF064
:10031000020008607047000040F27800C2F200005E
:10032000D0E90001084360B1FFE740F27802C2F271
:100330000002D2E90001013861F10001C2E90001C7
:10034000FFE770474EF21401CEF20001086800F09A
:100350007F40086040F20000C2F20000026840F6F0
:100360004120C0F26860A2FB0030121A00EB52007C
:10037000400A08604EF21801CEF20001086800F051
:100380007F4008604EF21001CEF20001086840F094
:10039000070008607047000086B0002105910491B5
:1003A000022003900291019043F60800C4F202007B
:1003B000006800F00C0005900598009040B1FFE740
:1003C000009804280ED0FFE70098082814D059E0C0
:1003D00040F20001C2F2000142F20040C0F2F4001B
:1003E000086059E040F20001C2F2000147F6400007
:1003F000C0F27D1008604FE043F60400C4F2020032
:100400000168C1F380510291006800F03F00019043
:10041000029888B1FFE7019947F64000C0F27D10CD
:10042000B0FBF1F043F60401C4F202010968C1F324
:1004300088114843049010E0019942F20040C0F254
:10044000F400B0FBF1F043F60401C4F202010968C4
:10045000C1F3881148430490FFE743F60400C4F257
:100460000200006800F44031022000EBD13003901C
:1004700004980399B0FBF1F040F20001C2F20001D0
:10048000086009E040F20001C2F2000142F20040BF
:10049000C0F2F4000860FFE743F60800C4F202006F
:1004A0000068C0B2010941F2B600C0F60000405C2D
:1004B0000590059A40F20001C2F200010868D040A0
:1004C000086006B0704700004EF68851CEF2000179
:1004D000086840F4700008607047000000000000E9
:1004E00010B590B040F27001C2F200010E910B887D
:1004F000580A46F6174CC1F2C16CA0FB0C208008CC
:100500004FF4B4725043C0EB931340F26E00C2F24A
:1005100000000380B1F800E0782303EB9E1E4FEA51
:10052000DE03A3FB0C439B0803FB12E340F2720EB5
:10053000C2F2000ECDF808E0AEF800300B88F021D2
:1005400001EB9313D908A1FB0CC1890801FB1231FF
:1005500040F27402C2F2000207921180018841F257
:10056000C600C0F60000089030F8110000F081FCD1
:1005700041EC100B8DED000B40F26800C2F2000060
:100580000F90008800F075FC41EC100B51EC100B43
:100590009FED450B53EC102B0B930A9200F0E2FAFF
:1005A0009DED001B41EC100B51EC110B53EC102B8B
:1005B00000F076FC41EC100B51EC100B00F02CFC21
:1005C0000299024608983423C4F201031A6009888C
:1005D00030F8110000F04DFC02460F9803920A46D5
:1005E000039942EC101B8DED040B008800F041FCD8
:1005F0000A9A0B9B41EC100B51EC100B00F0B2FA75
:100600009DED041B41EC100B51EC110B53EC102B26
:1006100000F046FC41EC100B51EC100B00F0FCFB21
:100620000799024608983823C4F201031A60098822
:1006300030F8110000F01DFC02460F9809920A469E
:10064000099942EC101B8DED0C0B008800F011FC99
:100650000A9A0B9B41EC100B51EC100B00F082FA44
:100660009DED0C1B41EC100B51EC110B53EC102BBE
:1006700000F016FC41EC100B51EC100B00F0CCFB21
:100680000E9902460F983C23C4F201031A600288B7
:100690000888104408801021C4F201016FF00100A5
:1006A000086010B010BD00BF0000000000009040C6
:1006B00081B08DF803009DF9030000280ED4FFE7F8
:1006C0009DF9031001F01F02012090404A094EF2EB
:1006D0000011CEF2000141F82200FFE701B070479F
:1006E00080B582B043F63001C4F20201086840F0E0
:1006F0000100086043F64401C4F20201086840F4B6
:10070000807008600021C4F20201086840F0030014
:10071000086042F20801C4F201010191086840F04A
:100720000200086042F21001C4F20101086840F0C2
:100730000700086042F20401C4F20101086840F0B9
:10074000200008601220FFF7B3FF0199086840F00D
:1007500001000860086840F08040086002B080BD79
:1007600083B043F60001C4F20201086840F480300F
:100770000860FFE743F60000C4F20200006880034F
:10078000002801D4FFE7F5E743F60041C4F2020177
:100790000291086820F480700860086840F4807056
:1007A0000860086820F007000860086840F0020050
:1007B0000860FFE743F60040C4F2020000688007CB
:1007C000002801D4FFE7F5E743F60801C4F202016F
:1007D0000091086820F4F8100860086840F4C81018
:1007E0000860086820F0F0000860086820F46040A5
:1007F0000860086820F4E0500860086840F4805001
:10080000086043F60401C4F202010191086820F473
:1008100080000860086840F480000860086820F0E4
:1008200070600860086820F440300860086820F0B4
:100830003F000860086847F6C07290430860086887
:1008400040F000600860086840F01900086008681F
:1008500040F4A4400860086840F48030086043F623
:100860000001C4F20201086840F080700860FFE7F0
:1008700043F60000C4F2020000688001002801D5A0
:10088000FFE7F5E743F60801C4F20201086820F02B
:1008900003000860086840F002000860FFE743F6C4
:1008A0000800C4F2020000680007002801D4FFE736
:1008B000F5E703B07047000080B582B000200190DA
:1008C000FFF702FEFFF74CFFFFF766FDFFF73AFD6B
:1008D00000F070F800F0CCF8FFF702FF43F63001AB
:1008E000C4F20201086840F00400086040F600010C
:1008F000C4F20201086840F08060086040F6180108
:10090000C4F202014FF00050086000F0A1F8FFE7C8
:1009100040F26B00C2F20000007898B3FFE740F2AB
:100920006A00C2F20000007860BBFFE740F26A0193
:10093000C2F200010120087040F26C00C2F2000017
:10094000007870B1FFE740F61801C4F202014FF0E1
:100950000050086040F26C01C2F2000100200870F3
:100960000FE040F61801C4F202014FF40050086095
:1009700000F05EF840F26C01C2F200010120087044
:10098000FFE715E040F26B00C2F20000007870B99A
:10099000FFE740F26A00C2F20000007838B1FFE7DA
:1009A00040F26A01C2F2000100200870FFE7FFE791
:1009B000AEE7000043F63001C4F20201086840F0DF
:1009C00001000860086840F00200086040F2004141
:1009D000C4F20201086840F02840086040F2084173
:1009E000C4F20201086840F02840086040F2244147
:1009F000C4F2020108680022C1F21012104308601C
:100A00000021C4F20201086840F42810086008219F
:100A1000C4F20201086840F4281008602421C4F2DE
:100A20000201086840F2111210430860704700008C
:100A30004421C4F20101086820F40040086000214C
:100A4000C4F20101086820F001000860704700004E
:100A50004421C4F20101086840F40040086000210C
:100A6000C4F20101086840F001000860704700000E
:100A700080B543F64401C4F20201086840F0010069
:100A800008600021C4F20101086840F0800008609D
:100A9000086840F0200008601821C4F201010868CD
:100AA00040F060000860086840F0080008600868CE
:100AB00040F4C0400860086840F4006008601C21F1
:100AC000C4F20101086840F060000860086840F066
:100AD000080008602021C4F20101086820F00A0023
:100AE0000860086820F0A0000860086820F4206012
:100AF0000860086840F2111210430860086840F26C
:100B00004442104308602821C4F201014FF4FA70F6
:100B100008602C21C4F2010140F267100860142122
:100B2000C4F20101086840F0200008603422C4F2D9
:100B30000102002010603822C4F2010210603C2241
:100B4000C4F201021060086840F0010008600C2146
:100B5000C4F20101086840F0010008601920FFF7A5
:100B6000A7FD80BD2DE9C04130B4DFF8A4C23CEA46
:100B7000111418BF3CEA131400F0ED801CEA1114A4
:100B800081EA030544EAD57418BF1CEA131500F086
:100B9000C880A4EB050404F17F7404F500344FF021
:100BA000004545EAC12145EAC32341EA505143EAE1
:100BB00052534FEAC0204FEAC222994208BF9042E6
:100BC00000F09D804FEA13650FF24416765D4FEA00
:100BD000134506FB05F7C7F1807706FB07F74FEAD9
:100BE000D737A7FB03687642A7FB06CEC8F5803847
:100BF00038BFA8F1010807FB08E6A6FB028C4FF0FE
:100C0000000EE6FB03CEDCF1000CCEF1004E38BF47
:100C1000AEF1010EA6FB0C584FF00007E6FB0E8765
:100C2000A1FB08C6A0FB07CE16EB0E064FF0000591
:100C300045F10005E1FB076515F1E04E7EBFA4F527
:100C400080345FEA46066D4116F1800745F10005E4
:100C50004FEA172747EA05674FEA15254FEA066668
:100C6000A6F1DE46B6F1805F20D9384605EBC471A7
:100C700024F0010C01EB0C11BCF1FE6F02D8F0BCAA
:100C8000BDE8008124425CBF01F5801E9EEAC47F5E
:100C900002D4F0BCBDE80081244200F13980A1F10A
:100CA000C041F0BCBDE8004100F0F2B94FEAD020ED
:100CB00040EA41504FEAD1214FEAD22242EA435260
:100CC0004FEAD323A7FB028607FB036605FB0266F8
:100CD0001EEA0E0F58BFA6EB0056B6EB00564FEAC1
:100CE000520E4EEAC37E18EB0E0E56EB530EBCD5D9
:100CF00018EB02085E417F1C55F10005B5E74FF483
:100D000080154FF000074FF000064FF00008ACE7E9
:100D100001F1C04101F000414FF00000F0BCBDE81E
:100D200000810CEA131511EA0C1F00D00CE013EA45
:100D30000C1F00F026804FF0000081EA030101F053
:100D40000041F0BCBDE80081F0BCBDE8004181EA93
:100D5000030100F09DB9F0BCBDE8004170B500F0A2
:100D600049F900BF097EFC3E00F007B84FF00000D3
:100D700081EA030101F00041704781EA030100F0BC
:100D800087B9F0BCBDE8004122494FF00000704730
:100D9000FFFDFBF9F7F5F4F2F0EEEDEBE9E8E6E440
:100DA000E3E1E0DEDDDBDAD8D7D5D4D3D1D0CFCDC7
:100DB000CCCBCAC8C7C6C5C4C2C1C0BFBEBDBCBB00
:100DC000BAB9B8B7B6B5B4B3B2B1B0AFAEADACABFB
:100DD000AAA9A8A8A7A6A5A4A3A3A2A1A09F9F9ED5
:100DE0009D9C9C9B9A999998979796959594939387
:100DF000929191908F8F8E8E8D8C8C8B8B8A89891E
:100E000088888787868585848483838282818180A0
:100E10000000FF070000F87F4FEA1153A3F580633D
:100E2000D3F11E03A8BFD3F1200C08DB4FF0004222
:100E300042EAC12252EA505232FA03F070470942A4
:100E40000BD4102BC4BF0020704703F5787CBCF195
:100E5000FF3F05D04FF0FF3070474FF00000704764
:100E600070B500F0C7F800BF499224800020704799
:100E7000F0E710F0004248BF4042B0FA80F310FAA9
:100E800003F10AD0C3F11D0303F5806302EB0352A3
:100E90004FEA415002EBD12170474FF000007047FC
:100EA00070B5DFF848C11CEA111E1EBF1CEA1315FD
:100EB0009EEA0C0F95EA0C0F00F06F8081EA0304A4
:100EC0004EEAD47EAE4421EA4C1123EA4C1341F49D
:100ED000801143F48013AEF17F7EA1FB024CA0FB96
:100EE0000365361955EB0C05A1FB034C4CF10003CF
:100EF000A0FB021C16EB0C06654153F100030942EE
:100F000018BF46F0010613F4007F0BD14FEA0331FE
:100F10004FEA053041EA155140EA165034036FF0AC
:100F200003020AE04FEAC3214FEAC52041EA5551C6
:100F300040EA5650F4026FF0020202EB2E4201EB3F
:100F4000025585EACE710AD05FEA440C18BF24F03E
:100F5000004450F1000041F1000120EAD47040F259
:100F6000FE7C624500D270BDA84214BF4FF08044A1
:100F70004FF04044002E08BF0024BEF1806FA8BF90
:100F8000A1F1C041BDE8704080F2828001F1C04112
:100F900001F000414FF0000070470CEA13159EEA83
:100FA0000C0F18BF95EA0C0F06D081EA030E4FF024
:100FB00000000EF0004170BD00F01CF88900013EF9
:100FC00000F007B800F009B84FEA430C5FEA5C5C38
:100FD00008D081EA030100F05BB84FEA410C5FEAF8
:100FE0005C5CF6D102494FF0000070470000FF073B
:100FF0000000F87F0EF1020E2EF0030E5EF8046B77
:10100000364205D4012A43EB030515F5001F12D81B
:10101000012841EB010C1CF5001F0CD80ED14FEA42
:10102000D17C0CEB4C0C0CF1020C15F5001F08BF29
:101030004CEBD37C04E04FF0080C01E04FEAD37C8A
:101040000CEB4C0526FA05F606F00706B6F1040C83
:1010500006D20EEB860CBDE870404CF0010C6047E8
:10106000DFE80CF0090B02024FF00041A1F500216E
:101070004FF0000070BD19461046012851EB0104E5
:1010800018BFD4F5001484BF002001F0004170BDEA
:101090000808A0F500114FEA31017047F1EE100A7F
:1010A0004FF6FF71C0F2C03120EA010040F04070FD
:1010B000E1EE100A7047000000000000000001028D
:1010C000030406070809B400B900BE00C400C90043
:1010D000CF00D400D900DF00E400E900EF00F40005
:1010E000F900FF00040109010E01140119011E019C
:1010F000230128012D01320137013C014101450145
:101100004A014F0150015201530155015601570147
:1011100059015A015B015C015D015E015F016001E3
:10112000610162016201630164016401650165019D
:101130006601660166016701670167016701670172
:101140006701670167016701660166016601650164
:101150006501640164016301620162016101600172
:101160005F015E015D015C015B015A01590157019C
:10117000560155015301520150014F0150015201D6
:10118000530155015601570159015A015B015C0198
:101190005D015E015F016001610162016201630145
:1011A000640164016501650166016601660167010C
:1011B00067016701670167016701670167016701EF
:1011C00066016601660165016501640164016301F0
:1011D00062016201610160015F015E015D015C010C
:1011E0005B015A0159015701560155015301520142
:1011F00050014F014A01450141013C0137013201D3
:101200002D01280123011E01190114010E010901FC
:101210000401FF00F900F400EF00E900E400DF0042
:10122000D900D400CF00C900C400BE00B900B4008A
:10123000AE00A900A3009E00980093008E008800D5
:1012400083007E00780073006E00680063005E001B
:10125000590053004E00490044003F003A00350059
:1012600030002B00260022001D001800170015007A
:1012700014001200110010000E000D000C000B00F5
:101280000A00090008000700060005000500040028
:101290000300030002000200010001000100000041
:1012A000000000000000000000000000000000003E
:1012B000010001000100020002000300030004001D
:1012C0000500050006000700080009000A000B00E1
:1012D0000C000D000E00100011001200140015008B
:1012E000170018001700150014001200110010005C
:1012F0000E000D000C000B000A000900080007009A
:1013000006000500050004000300030002000200BF
:1013100001000100010000000000000000000000CA
:1013200000000000000000000100010001000200B8
:10133000020003000300040005000500060007008A
:10134000080009000A000B000C000D000E00100040
:101350001100120014001500170018001D002200D3
:1013600026002B00300035003A003F0044004900C1
:101370004E00530059005E00630068006E00730069
:1013800078007E00830088008E00930098009E0005
:10139000A300A900AE000000B81300080000002060
:1013A00004000000D0010008BC1300080800002061
:0C13B00078060000EC0100080024F400A6
:0400000508000235B8
:00000001FF
